:0C0000000C9472000C9400000C940000A2
:10000C000C9400000C9400000C9400000C94000064
:10001C000C9400000C9400000C9400000C94000054
:10002C000C9400000C9400000C9400000C94000044
:10003C000C9400000C9400000C9400000C94000034
:10004C000C9400000C9400000C9400000C94000024
:10005C000C9400000C9400000C9400000C94000014
:10006C000C9400000C9400000C9400000C94000004
:10007C000C9400000C9400000C9400000C940000F4
:10008C000C9400000C9400000C9400000C940000E4
:10009C000C9400000C9400000C9400000C940000D4
:1000AC00766F6C74616A653A0025352E32660000F5
:1000BC002D4E414E000080C001002D4E414E004996
:1000CC004E46000009008003AC0002009503C200FC
:1000DC0001009903C4000000F894EE27EFBBF1E097
:1000EC00F5BFE5BF8DE0A2E0BB27ED938A95E9F75C
:1000FC0080E09AE0A0E0B1E0ED930197E9F7E0ED44
:10010C00F0E085919591009761F0A591B5910590DE
:10011C001590BF01F00105900D920197E1F7FB01DD
:10012C00F0CFE0E0EEBBEFEFEDBFEAE0EEBFC0E8F2
:10013C00D3E00C94C9001A931A2FE12FEF71E093BE
:10014C007C0015FF04C0E0917B00E06203C0E091ED
:10015C007B00EF7DE0937B008BE18A95F1F7E091DA
:10016C007A00E064E0937A00E0917A00E071E1F3C8
:10017C00E0917A00E061E0937A00E0917800F091F0
:10018C0079000C94EF04E0E8E0936100E0E0E09388
:10019C006100E4B9E5B9E7B9E8B9EAB9EBB9EDB989
:1001AC00EEB9E0BBE1BBE9BDE2BFE4BDE5BDE6BD38
:1001BC00E7BDE8BDE0938000E0938100E09385000B
:1001CC00E0938400E0938700E0938600E09389003D
:1001DC00E0938800E0938B00E0938A00E0938D001D
:1001EC00E0938C00E0939000E0939100E0939500F5
:1001FC00E0939400E0939700E0939600E0939900CD
:10020C00E0939800E0939B00E0939A00E0939D00AC
:10021C00E0939C00E2B7EF7CE2BFE0E0E093C0002B
:10022C00E093C100E093C200E093C300E093C400EC
:10023C00CCD4E093BE00C9D4E093CF00C6D4E093F5
:10024C00D000C3D4E093D100C0D4E093D200E0E05E
:10025C00E093D400E0936E00E0936F00E0937100A4
:10026C00E0937200E0936900E0936A00EDBBE093C9
:10027C006B00E0936800E093C900E0E8E0BFE0E0C9
:10028C00E0937F00E0937E00E0937D00E0937C00A0
:10029C00E3E8E0937A00E0E8E0937B00E0E0ECBD7B
:1002AC00E093BC00A8E06CD3A0E045DF662777277D
:1002BC00A2D6DF01CB01EAE9F9E968E473E472D76D
:1002CC00E0938903F0938A0360938B0370938C0300
:1002DC002BD3E2E0EA93A1E015D3E0E0EA93A0E0AF
:1002EC0011D3A0E8B3E03DD3EDE8F3E0FA93EA9341
:1002FC00E5EBF0E0FA93EA93E0918903F0918A033D
:10030C0060918B0370918C03EFD584E0A9D2289671
:10031C00ADE8B3E026D3A4EFB1E0A8D7C5CFFFCFAB
:10032C004ED59D015E811296C6D53097E1F0D9016C
:10033C001496C1D58F01309759F00230E0E01E07BA
:10034C0060F0F80131978F01D9011496ED93FC936D
:10035C00D90112963ED431975083D901ACD5FF23E5
:10036C000AF037D405C0D901EFEFFFEFED93FC9302
:10037C002DD52796089533D4E0E836D4AD012A85DF
:10038C00EE85FF85EF3FAFEFFA0731F45A934A93AE
:10039C00ACEBB0E020D386C0EF3FAFE7FA0731F407
:1003AC005A934A93ADEBB0E016D37CC0AB85A73023
:1003BC0010F0E6E0EB871B85E12F1150E03011F0D7
:1003CC0018D4FACF24D4A7D519F430E012D41BC01A
:1003DC003B8522D409F008F407C00BD41DD418F0C7
:1003EC0025D429D4FBCF08C017D428F41FD42ED47D
:1003FC0033D43150F9CFFDD30AD433D42DD40CD40B
:10040C0010F014D418D410E0EB85E11728F12FD498
:10041C0033D427D437D40AD4C5D6B4D50E2F5F9392
:10042C004F934F5F5F4FE05DAF91BF91EC93E02F27
:10043C00FF2766277727DFD51AD466D6F7D35ED584
:10044C000DD60AD4E12F1F5FE030F1F6DA014F5FD1
:10045C005F4FEEE2EC93D8CF5F934F934F5F5F4FBC
:10046C00E22FAF91BF91EC93303024F43195DA0147
:10047C00EDE202C0DA01EBE2EC934F5F5F4F5F936A
:10048C004F9308D4D3D4E05DAF91BF91EC935F93BD
:10049C004F9300D4F4D4E05DAF91BF91EC93DA01AB
:1004AC00E0E0EC9393D460960895BA93AA93EF97F7
:1004BC00619785D410E0FE01E85AFF4F0190F0815E
:1004CC00E02DE887F987FE01EA5AFF4F0190F08191
:1004DC00E02DEE83FF83AE81BF81E0E0F0E0ED9391
:1004EC00FC93DE01A45ABF4F74D33197E4912E2FA5
:1004FC00E03009F4AEC1E12FE03031F4253211F4D3
:10050C0011E001C0CCD3A4C1E130B9F4253211F40F
:10051C00C6D39DC112E0E0E0ED8B00E02D3211F46A
:10052C0001E096C12B3219F4EBE2ED8B91C1203234
:10053C0019F4E0E2ED8B8CC102C0E23039F450E0EA
:10054C0013E0203311F4006883C102C0E33091F44E
:10055C00203310F02A3308F007C0AAE05A9F502D20
:10056C00E22FE0535E0F74C140E02E3211F414E020
:10057C006FC10FC0E43099F4203310F02A3308F027
:10058C0008C00062AAE04A9F402DE22FE0534E0FB4
:10059C005FC12C3619F4026015E05AC103C0E53076
:1005AC0009F056C1E22FE33639F480D386D37ED3DB
:1005BC00A481AA9389D34BC1E53411F0E53609F433
:1005CC0002C0E636B9F586D38AD379D48FD36ED3ED
:1005DC0074D3AD85AA2332F0AD89AB3241F0A03291
:1005EC0061F013C088D39BD481D3EDE2ED8B07FF70
:1005FC0004C0ED89EA9368D308C0EE85FF85319677
:10060C00EE87FF873197AD89A08305FF46E026363C
:10061C0039F471D369D44A93AB89BC8942D207C0EF
:10062C006AD362D44A932A93AC89BD89A4DE52D38F
:10063C0067D318C0E33729F439D33FD366D360D3DB
:10064C000AC0E037A1F432D338D35FD3AE85BF856F
:10065C00DBD11E2F08600F77403011F0411708F0E6
:10066C0001C0142F40E0E0E0EC8B30E065C0E436D4
:10067C0011F0E93611F4046002C0E53791F4EAE0B8
:10068C00EC8B01FF07C0E0E0FAEC6AE97BE343D3B3
:10069C001AE01FC0E0E1F7E260E070E03CD315E047
:1006AC0018C0E83511F4086003C0E83709F0CFC072
:1006BC00E0E1EC8B01FF07C0E0E0F0E060E070E10E
:1006CC002AD318E006C0E0E0F0E160E070E023D34C
:1006DC0014E0403011F00F7701C041E001FF06C07B
:1006EC00E5D2EBD2FCD21496EAD310C002FF07C0BD
:1006FC00DDD2E3D2F4D21496DED385D307C0D6D2A2
:10070C00DCD2EDD21496D7D366277727EA87FB87FE
:10071C006C877D8702FF0FC0AD85AA232AF4EBD22C
:10072C0064D3E4D2EDE2ED8BED89E03019F01F5F7C
:10073C004F5F01C00B7F342F00FD13C0151710F451
:10074C00351708F00EC007FF08C002FF04C00B7F6E
:10075C002D89115001C020E301C020E2A0D25150DC
:10076C00EDCF141780F4006102FF05C0D9D209F057
:10077C00515011504150E0E3EA93A6D2503009F0A9
:10078C0051504150EECF312FEC89E030B1F4303084
:10079C0099F003FF06C0EE85FF852591EE87FF8754
:1007AC0005C0AE85BF852D91AE87BF8778D25030FE
:1007BC0009F051503150EBCF41C0C4D23CD32E2F55
:1007CC002A3030F003FF02C0295C01C0295A01C055
:1007DC00205D04FD1DC0213348F4BDD2A130E0E002
:1007EC00BE07E0E08E07E0E09E0709F40BC043175C
:1007FC0040F4531710F000FF01C00EC020E207FFB9
:10080C0007C020E3006102FF03C08AD209F05150F7
:10081C0046D2503009F05150315094D23CD366D26C
:10082C00EC8999D2FF276627772705D374D2E889FC
:10083C00F9896A897B896FD309F0BFCF00FF07C0A4
:10084C00503029F05150E0E2EA933ED2F9CF10E05B
:10085C0048CEAE81BF812FD3B9D2EF966F96089553
:10086C00FF92F82E2697ABD2FE01B7D2468557855C
:10087C00042E052A19F4EFEFFFEF1EC0DE011896C7
:10088C00B0D28D0148875987E0E0EA87EB87DE011B
:10089C001C96A7D210D3FA93EA931A930A93E6E91B
:1008AC00F1E0FA93EA93DE011C96FFDD9F01A88527
:1008BC00B985E0E0EC93F90189D22C96FF9008956C
:1008CC001A931A2FE5B1EF70AE2FE12FE07FEA2BD0
:1008DC00E5B98DE08A95F1F72A9A8DE08A95F1F7C2
:1008EC002A988DE08A95F1F774C0AA93A881E8DF65
:1008FC00E881E295E883A881E3DF85E88A95F1F742
:10090C00219608951A930A931A2F0A81E12FF0E089
:10091C00EB56FC4FE081E00FAE2FE7DF402E312E7F
:10092C001981088123960895A2E01AD2ACE0DDDF8C
:10093C00A1E016D2E0E03E2E4E2E08951A931A2F07
:10094C001A3011F0461438F0E0E0EA933394A32DFA
:10095C00D9DF1A30F1F14394289AA12FC6DF2898D9
:10096C0038C02FD29D01D9012F5F3F4FEC911E2F24
:10097C00E03019F0A12FE2DFF6CF2AD20C94550506
:10098C001A931A2FE4B1E06FE4B9229A209A219AB3
:10099C002A9828982998612EE12FE058E093970324
:1009AC00E12FE054E0939803A4E1B0E05FD4DCD1F4
:1009BC00DBD1DAD1A0E284DF88EC90E00197F1F78B
:1009CC00A8E293DFA4E091DFA5E88FDFA6E08DDF3E
:1009DC00ABDF19910895BA93AA93E991F991A99172
:1009EC00B991CD0105900D920020E1F7FC0108951D
:1009FC00BA93AA93A991B991EE27FF276D9166231B
:100A0C0011F03196FBCF0895BA93AA93AA27BB276E
:100A1C00E991F9910590002011F01196FBCFFD01A1
:100A2C00089567D27B816A81F981E88177FB770F22
:100A3C0067FD7160972F9E5781F078F0983190F494
:100A4C00AA27BB27882708948795B795A7959A95C9
:100A5C00D1F7EA23FB23682305C0E8947727EE2718
:100A6C00FF2766276F77769508F4606877F9A99168
:100A7C00B99189919991EA17FB076807790797FB58
:100A8C00089537D227D2CDDF2AD211F474D107C002
:100A9C00EEF771D1A0E0B0E080E89FE3DFD22496BE
:100AAC0008959DD0E0E0A0D09D015A85ED85FE858E
:100ABC00EF3FAFEFFA0731F43A932A93A6ECB0E08C
:100ACC008ADF80C0EF3FAFE7FA0731F43A932A93FD
:100ADC00A7ECB0E080DF76C0AE85AA2342F44DD1FE
:100AEC001ED250D1D9012F5F3F4FEDE2EC9357301E
:100AFC0008F056E0152FE12F1150E03021F0B7D05F
:100B0C00BBD045D1F8CF48D1B0D23CD110E0E0E019
:100B1C00F0E060E87FE33BD13FD188D358F069D057
:100B2C001F5F173230F03A932A93ABECB0E053DFEF
:100B3C0049C0F2CF103031F4D9012F5F3F4FE0E3C1
:100B4C00EC931DC0E12F1150E030C9F090D094D03F
:100B5C0088D098D02AD126D315D20E2F3F932F931D
:100B6C0029D1AF91BF91EC93E02FF0E080D04BD125
:100B7C0042D2CAD21AD1C2D171D204D1E3CF5030F1
:100B8C00F1F0D9012F5F3F4FEEE2EC93E52F51507E
:100B9C00E030A9F00AD15AD0F5D0EFD0F3D10E2F16
:100BAC003F932F9307D1AF91BF91EC93E02FF0E0DF
:100BBC00FCD029D120D2A2D151D2E4D0E7CFD90197
:100BCC00E0E0EC9303D12F960895E0E0E093BF00B2
:100BDC000895ED91FD913196FE93EE93089524972F
:100BEC00E0E0E883E9830895EA83EFE3EB83E7D061
:100BFC000895AE81BF8188859985E0E0F0E060E2E0
:100C0C0071E482D2EE83FF83688779870895EC853F
:100C1C00FD856E857F850895EE81FF8168857985D8
:100C2C00AC85BD858E859F8501D30895AC85BD852A
:100C3C008E859F850895EDECFCEC6CEC7DE364D225
:100C4C00EC87FD876E877F873F5F0895E0E0F0E0DB
:100C5C0060E271E459D20895EC87FD876E877F8737
:100C6C000895A0E0B0E080E09FE3FFD10895AE814D
:100C7C00BF81888599850895EDECFCEC6CEC7DE3E7
:100C8C0043D20895DF01CB01FCDEEE83FF8368873E
:100C9C00798708954F5F5F4FA32FEAE008952A9359
:100CAC00AF81B885E985FA8509950895FE01E65A64
:100CBC00FF4F0190F081E02D08953497DE01A65A84
:100CCC00BF4FED93FC930895AF81B885E985FA8504
:100CDC0009950895FE017696EE87FF870895DE014B
:100CEC00A65ABF4F0D90BC91A02D0895EA87FB87A3
:100CFC006C877D870895EA85FB856C857D850895D5
:100D0C00AE85BF8575DE1E2F0895E9DF1496D3D00E
:100D1C00EE87FF870895E88BF98B6A8B7B8B0895A0
:100D2C000B7FED89EA93DE01A95ABF4F0D90BC9160
:100D3C00A02DFE01E75AFF4F0190F081E02D09959F
:100D4C0050300895E889F9896A897B89AA85BB8521
:100D5C008C859D850895A889B9898A899B89089570
:100D6C00C4DDA3E0B0E082C2A0E3AADD88EC90E091
:100D7C000197F1F70895A9D00895EB85FC856D8551
:100D8C007E850895EB87FC876D877E870895EE83BB
:100D9C00FF83688779870895EE81FF81688579855F
:100DAC00AB85BC858D859E850895AB85BC858D8571
:100DBC009E8508952F5F3F4FE02FE05D08955A9375
:100DCC004A933A932A931A930A9308955D814C811E
:100DDC003B812A811981088108950024EF0DF01DB3
:100DEC0008950024AF0DB01D0895F0956095709591
:100DFC00E195FF4F6F4F7F4F0895FE2FFF0FFF0BB5
:100E0C006F2F7F2F08956F2F660F660B762F089527
:100E1C00002498E0AA0F001C0E1A10F40E0E01C04C
:100E2C00A1609A95B9F7EA2FA02D089538D0F0DF7C
:100E3C000EF4E19508953F934F935F930024112492
:100E4C00A00130E2AA0FBB1F881F991F001C111CA8
:100E5C00441F551F0E1A1F0A460B570B28F40E0E73
:100E6C001F1E461F571F01C0A1603A9559F7FD017F
:100E7C00BC01D001CA015F914F913F910895E89454
:100E8C00A7FF02C0A1956894E7FDE195C1DFEA2FA9
:100E9C000EF4E1950895CFDFFD01BC010895E894AF
:100EAC00E7FF02C0E1956894A7FF04C0A19500F884
:100EBC00039400FA0895ED91FC9111970895ED912A
:100ECC00FD916D917C9113970895E881F9816A8168
:100EDC007B810895A881B9818A819B810895E883DB
:100EEC00F9836A837B8308957A936A93FA93EA93DE
:100EFC0008959A938A93BA93AA930895182E862FDD
:100F0C00612D192E972F712D1B2EBF2FF12D1A2EFF
:100F1C00AE2FE12D089530976040704008953097C2
:100F2C006040704009F070580895552342F45038D1
:100F3C0011F4E0FF04C03196691F791F6BF050E883
:100F4C00572711F45F93CFC05F3F31F0660F000C51
:100F5C0057956795752F08955F9300200AF0CEC0C2
:100F6C00C7C050E8192E1522880F991F9527550FC9
:100F7C00879550E8072E0522660F771F7527550FAA
:100F8C0067950895689401C0E8945F93F2DF703818
:100F9C0018F07F3F08F4A7C056E1571BAAF45195EF
:100FAC0058300EF4593030F0EFEFFFEF6FEF7FE772
:100FBC0077F91AC077275523B9F0EE0FFF1F661F7C
:100FCC00771F5A95D1F710C07727583028F0EF2F9C
:100FDC00F62F672F5850F9CF552331F0769567953A
:100FEC00F795E7955A95D1F700200AF4FEDE5F914C
:100FFC000895689401C0E894309760407040B1F057
:10100C00002426F0772312F40094EFDE172E7EE1F5
:10101C00112032F07A95EE0FFF1F661F111CF9CFCD
:10102C00EF2FF62F612D5F938ADF5F9108954F9319
:10103C00AF01FD01DA01AB01BC01CA01402D012C4D
:10104C00142E4F910895EA0FFB1F681F0895E09529
:10105C00F0956095EF5FFF4F6F4F08955F9381DFC1
:10106C00903871F150E8152604C05F937ADF903800
:10107C0039F1703821F1572F591B2BF112F4D7DFAE
:10108C00FACF583118F0AA27BB278827583028F0F8
:10109C00AB2FB82F88275850F9CF552329F08695B8
:1010AC00B795A7955A95D9F7502D512572F0CBDFEE
:1010BC0038F46795F795E795739513F41FC0B7DF70
:1010CC003EDF5F910895D8F7FBCFEA1BFB0B680B53
:1010DC0051F010F40094BBDF662392F3EE0FFF1F68
:1010EC00661F7A95CBF7EE27FF27BF015F91089516
:1010FC00EFEFFFEF6FE77FEF5F910895EFEFFFEFFB
:10110C006FE77FE75F9108955F932BDF703859F39A
:10111C00903849F301240894791F23F424F3002018
:10112C003AF3ECCF0F921F932F933F934F931127CA
:10113C0022279927689FA0018F9F302D410D591FA1
:10114C006B9F300D411D591F8E9F27D0BF9F25D0FF
:10115C006A9F23D0BE9F1DD0AF9F1BD0AE9F110D99
:10116C00291F391F491F591FE32FF42F652F522FA9
:10117C004F913F912F911F910F9066232AF0550F9D
:10118C00EE1FFF1F661F02C073954BF2CEDE5F9100
:10119C000895100D211D391F02C0200D311D491F4E
:1011AC00591F08955F93DDDE703821F411200AF485
:1011BC009FCFA4CF903809F496CF01240894970BB5
:1011CC001BF4D4F30020F3CF792F1F932F933F936D
:1011DC004F931124112722273327A90190E2AE1730
:1011EC00BF078607410730F0AE1BBF0B860B410BC8
:1011FC00089401C08894551F221F331F111CAA1F6D
:10120C00BB1F881F441F9A9551F7F901612D4F910F
:10121C003F912F911F91662332F0550FEE1FFF1F48
:10122C00661F7A954BF281DE5F91089599239AF0AF
:10123C00772342F0971748F029F4AE17BF078607BB
:10124C0020F031F098948894089598940894089517
:10125C001894889408957723C2F7971798F3A9F7F1
:10126C00EA17FB07680788F399F3ECCF109639F06F
:10127C00A8958EEC97E00197F1F71197C9F70895AF
:00000001FF
