S01D0000696E74657272757063696F6E65735F5043696E74582E7372656378
S113000055C000006EC000006CC000006AC0000053
S113001068C0000066C0000064C0000062C0000048
S113002060C0000068C000005CC000005AC000004E
S113003058C0000056C0000054C0000052C0000068
S113004050C000004EC000004CC000004AC0000078
S113005048C0000046C0000044C0000042C0000088
S113006040C000003EC000003CC000003AC0000098
S113007038C0000036C0000034C0000032C00000A8
S113008030C000002EC000002CC000002AC00000B8
S113009028C0000026C0000024C0000022C00000C8
S11300A020C000001EC000001CC0000011241FBEA0
S11300B0CFEFDAE0DEBFCDBF11E0A0E0B1E0E0E3D6
S11300C0F1E002C005900D92A031B107D9F721E00B
S11300D0A0E1B1E001C01D92A131B207E1F71CD04B
S11300E025C08ECF8FEF8AB981E08093680082E5C6
S11300F080936B0008951F920F920FB60F921124F4
S11301008F93809110018F5F809310018F910F90D6
S11301100FBE0F901F9018957894E4DFE0911001C2
S1130120F0E0E050FF4F80818BB9F8CFF894FFCF17
S1130130C0CFA4B0999282B880988883C6A1868ED5
S9030000FC
