S00F0000636C6173655F312E737265637D
S11300000C9456000C947D000C9473000C947300B3
S11300100C9473000C9473000C9473000C94730090
S11300200C9473000C9473000C9473000C94730080
S11300300C9473000C9473000C9473000C94730070
S11300400C9473000C9473000C9473000C94730060
S11300500C9473000C9473000C9473000C94730050
S11300600C9473000C9473000C9473000C94730040
S11300700C9473000C9473000C9473000C94730030
S11300800C9473000C9473000C9473000C94730020
S11300900C9473000C9473000C9473000C94730010
S11300A00C9473000C9473000C94730011241FBE01
S11300B0CFEFDAE0DEBFCDBF11E0A0E0B1E0ECE6C7
S11300C0F1E002C005900D92A031B107D9F721E00B
S11300D0A0E1B1E001C01D92A131B207E1F70E9495
S11300E093000C94B4000C9400008FEF84B981E069
S11300F08DBB83E08093690008951F920F920FB621
S11301000F9211248F93809110018F5F803119F029
S11301108093100102C0109210018F910F900FBEB6
S11301200F901F901895CF93DF93CDB7DEB76097EC
S11301300FB6F894DEBF0FBECDBF80E1E0E0F1E082
S1130140DE01119601900D928A95E1F778940E9450
S1130150750080911001E1E0F0E0EC0FFD1FE80F65
S10F0160F11D808185B9F5CFF894FFCF24
S113016CC0CFA4B0999282B880988883C6A1868E99
S9030000FC
